{
  "contractName": "Asteroid",
  "abi": [
    {
      "inputs": [],
      "payable": false,
      "stateMutability": "nonpayable",
      "type": "constructor"
    },
    {
      "anonymous": false,
      "inputs": [
        {
          "indexed": true,
          "internalType": "address",
          "name": "_from",
          "type": "address"
        },
        {
          "indexed": true,
          "internalType": "address",
          "name": "_to",
          "type": "address"
        },
        {
          "indexed": false,
          "internalType": "uint256",
          "name": "_value",
          "type": "uint256"
        }
      ],
      "name": "Transfer",
      "type": "event"
    },
    {
      "constant": true,
      "inputs": [],
      "name": "_decimals",
      "outputs": [
        {
          "internalType": "uint256",
          "name": "",
          "type": "uint256"
        }
      ],
      "payable": false,
      "stateMutability": "view",
      "type": "function"
    },
    {
      "constant": true,
      "inputs": [],
      "name": "_name",
      "outputs": [
        {
          "internalType": "string",
          "name": "",
          "type": "string"
        }
      ],
      "payable": false,
      "stateMutability": "view",
      "type": "function"
    },
    {
      "constant": true,
      "inputs": [],
      "name": "_symbol",
      "outputs": [
        {
          "internalType": "string",
          "name": "",
          "type": "string"
        }
      ],
      "payable": false,
      "stateMutability": "view",
      "type": "function"
    },
    {
      "constant": true,
      "inputs": [
        {
          "internalType": "address",
          "name": "",
          "type": "address"
        }
      ],
      "name": "accounts",
      "outputs": [
        {
          "internalType": "uint256",
          "name": "",
          "type": "uint256"
        }
      ],
      "payable": false,
      "stateMutability": "view",
      "type": "function"
    },
    {
      "constant": true,
      "inputs": [
        {
          "internalType": "uint256",
          "name": "",
          "type": "uint256"
        }
      ],
      "name": "dinos",
      "outputs": [
        {
          "internalType": "string",
          "name": "dinoName",
          "type": "string"
        },
        {
          "internalType": "address",
          "name": "dinoAddress",
          "type": "address"
        }
      ],
      "payable": false,
      "stateMutability": "view",
      "type": "function"
    },
    {
      "constant": true,
      "inputs": [],
      "name": "forge",
      "outputs": [
        {
          "internalType": "address",
          "name": "",
          "type": "address"
        }
      ],
      "payable": false,
      "stateMutability": "view",
      "type": "function"
    },
    {
      "constant": true,
      "inputs": [],
      "name": "supply",
      "outputs": [
        {
          "internalType": "uint256",
          "name": "",
          "type": "uint256"
        }
      ],
      "payable": false,
      "stateMutability": "view",
      "type": "function"
    },
    {
      "constant": true,
      "inputs": [],
      "name": "name",
      "outputs": [
        {
          "internalType": "string",
          "name": "",
          "type": "string"
        }
      ],
      "payable": false,
      "stateMutability": "view",
      "type": "function"
    },
    {
      "constant": true,
      "inputs": [],
      "name": "symbol",
      "outputs": [
        {
          "internalType": "string",
          "name": "",
          "type": "string"
        }
      ],
      "payable": false,
      "stateMutability": "view",
      "type": "function"
    },
    {
      "constant": true,
      "inputs": [],
      "name": "decimals",
      "outputs": [
        {
          "internalType": "uint256",
          "name": "",
          "type": "uint256"
        }
      ],
      "payable": false,
      "stateMutability": "view",
      "type": "function"
    },
    {
      "constant": true,
      "inputs": [],
      "name": "totalSupply",
      "outputs": [
        {
          "internalType": "uint256",
          "name": "",
          "type": "uint256"
        }
      ],
      "payable": false,
      "stateMutability": "view",
      "type": "function"
    },
    {
      "constant": true,
      "inputs": [
        {
          "internalType": "address",
          "name": "_owner",
          "type": "address"
        }
      ],
      "name": "balanceOf",
      "outputs": [
        {
          "internalType": "uint256",
          "name": "balance",
          "type": "uint256"
        }
      ],
      "payable": false,
      "stateMutability": "view",
      "type": "function"
    },
    {
      "constant": false,
      "inputs": [
        {
          "internalType": "address",
          "name": "_to",
          "type": "address"
        },
        {
          "internalType": "uint256",
          "name": "_value",
          "type": "uint256"
        }
      ],
      "name": "transfer",
      "outputs": [
        {
          "internalType": "bool",
          "name": "success",
          "type": "bool"
        }
      ],
      "payable": false,
      "stateMutability": "nonpayable",
      "type": "function"
    },
    {
      "constant": false,
      "inputs": [
        {
          "internalType": "address",
          "name": "_to",
          "type": "address"
        },
        {
          "internalType": "address",
          "name": "_from",
          "type": "address"
        },
        {
          "internalType": "uint256",
          "name": "_value",
          "type": "uint256"
        }
      ],
      "name": "transferFrom",
      "outputs": [
        {
          "internalType": "bool",
          "name": "success",
          "type": "bool"
        }
      ],
      "payable": false,
      "stateMutability": "nonpayable",
      "type": "function"
    }
  ],
  "bytecode": "0x60806040526040518060400160405280600e81526020017f41737465726f696420546f6b656e0000000000000000000000000000000000008152506001908051906020019061004f9291906100fd565b506040518060400160405280600481526020017f41535452000000000000000000000000000000000000000000000000000000008152506002908051906020019061009b9291906100fd565b5060006003553480156100ad57600080fd5b50336000806101000a81548173ffffffffffffffffffffffffffffffffffffffff021916908373ffffffffffffffffffffffffffffffffffffffff160217905550620f42406004819055506101a2565b828054600181600116156101000203166002900490600052602060002090601f016020900481019282601f1061013e57805160ff191683800117855561016c565b8280016001018555821561016c579182015b8281111561016b578251825591602001919060010190610150565b5b509050610179919061017d565b5090565b61019f91905b8082111561019b576000816000905550600101610183565b5090565b90565b610e33806101b16000396000f3fe608060405234801561001057600080fd5b50600436106100ea5760003560e01c80636c6f42391161008c5780639a29969d116100665780639a29969d146103ed578063a9059cbb146104c7578063b09f12661461052d578063d28d8852146105b0576100ea565b80636c6f4239146102c857806370a082311461031257806395d89b411461036a576100ea565b806323b872dd116100c857806323b872dd146101ae578063313ce5671461023457806332424aa3146102525780635e5c06e214610270576100ea565b8063047fc9aa146100ef57806306fdde031461010d57806318160ddd14610190575b600080fd5b6100f7610633565b6040518082815260200191505060405180910390f35b610115610639565b6040518080602001828103825283818151815260200191508051906020019080838360005b8381101561015557808201518184015260208101905061013a565b50505050905090810190601f1680156101825780820380516001836020036101000a031916815260200191505b509250505060405180910390f35b6101986106db565b6040518082815260200191505060405180910390f35b61021a600480360360608110156101c457600080fd5b81019080803573ffffffffffffffffffffffffffffffffffffffff169060200190929190803573ffffffffffffffffffffffffffffffffffffffff169060200190929190803590602001909291905050506106e5565b604051808215151515815260200191505060405180910390f35b61023c6108a5565b6040518082815260200191505060405180910390f35b61025a6108af565b6040518082815260200191505060405180910390f35b6102b26004803603602081101561028657600080fd5b81019080803573ffffffffffffffffffffffffffffffffffffffff1690602001909291905050506108b5565b6040518082815260200191505060405180910390f35b6102d06108cd565b604051808273ffffffffffffffffffffffffffffffffffffffff1673ffffffffffffffffffffffffffffffffffffffff16815260200191505060405180910390f35b6103546004803603602081101561032857600080fd5b81019080803573ffffffffffffffffffffffffffffffffffffffff1690602001909291905050506108f2565b6040518082815260200191505060405180910390f35b610372610957565b6040518080602001828103825283818151815260200191508051906020019080838360005b838110156103b2578082015181840152602081019050610397565b50505050905090810190601f1680156103df5780820380516001836020036101000a031916815260200191505b509250505060405180910390f35b6104196004803603602081101561040357600080fd5b81019080803590602001909291905050506109f9565b60405180806020018373ffffffffffffffffffffffffffffffffffffffff1673ffffffffffffffffffffffffffffffffffffffff168152602001828103825284818151815260200191508051906020019080838360005b8381101561048b578082015181840152602081019050610470565b50505050905090810190601f1680156104b85780820380516001836020036101000a031916815260200191505b50935050505060405180910390f35b610513600480360360408110156104dd57600080fd5b81019080803573ffffffffffffffffffffffffffffffffffffffff16906020019092919080359060200190929190505050610ae2565b604051808215151515815260200191505060405180910390f35b610535610cc2565b6040518080602001828103825283818151815260200191508051906020019080838360005b8381101561057557808201518184015260208101905061055a565b50505050905090810190601f1680156105a25780820380516001836020036101000a031916815260200191505b509250505060405180910390f35b6105b8610d60565b6040518080602001828103825283818151815260200191508051906020019080838360005b838110156105f85780820151818401526020810190506105dd565b50505050905090810190601f1680156106255780820380516001836020036101000a031916815260200191505b509250505060405180910390f35b60045481565b606060018054600181600116156101000203166002900480601f0160208091040260200160405190810160405280929190818152602001828054600181600116156101000203166002900480156106d15780601f106106a6576101008083540402835291602001916106d1565b820191906000526020600020905b8154815290600101906020018083116106b457829003601f168201915b5050505050905090565b6000600454905090565b6000600660008473ffffffffffffffffffffffffffffffffffffffff1673ffffffffffffffffffffffffffffffffffffffff16815260200190815260200160002054821061079b576040517f08c379a00000000000000000000000000000000000000000000000000000000081526004018080602001828103825260208152602001807f496e73756666696369656e742061737365747320666f72207472616e7366657281525060200191505060405180910390fd5b81600660003373ffffffffffffffffffffffffffffffffffffffff1673ffffffffffffffffffffffffffffffffffffffff1681526020019081526020016000206000828254039250508190555081600660008673ffffffffffffffffffffffffffffffffffffffff1673ffffffffffffffffffffffffffffffffffffffff168152602001908152602001600020600082825401925050819055508373ffffffffffffffffffffffffffffffffffffffff163373ffffffffffffffffffffffffffffffffffffffff167fddf252ad1be2c89b69c2b068fc378daa952ba7f163c4a11628f55a4df523b3ef846040518082815260200191505060405180910390a3600190509392505050565b6000600354905090565b60035481565b60066020528060005260406000206000915090505481565b6000809054906101000a900473ffffffffffffffffffffffffffffffffffffffff1681565b600080600660008473ffffffffffffffffffffffffffffffffffffffff1673ffffffffffffffffffffffffffffffffffffffff1681526020019081526020016000205490506005818154811061094457fe5b9060005260206000200154915050919050565b606060028054600181600116156101000203166002900480601f0160208091040260200160405190810160405280929190818152602001828054600181600116156101000203166002900480156109ef5780601f106109c4576101008083540402835291602001916109ef565b820191906000526020600020905b8154815290600101906020018083116109d257829003601f168201915b5050505050905090565b60088181548110610a0657fe5b9060005260206000209060020201600091509050806000018054600181600116156101000203166002900480601f016020809104026020016040519081016040528092919081815260200182805460018160011615610100020316600290048015610ab25780601f10610a8757610100808354040283529160200191610ab2565b820191906000526020600020905b815481529060010190602001808311610a9557829003601f168201915b5050505050908060010160009054906101000a900473ffffffffffffffffffffffffffffffffffffffff16905082565b6000600660008060009054906101000a900473ffffffffffffffffffffffffffffffffffffffff1673ffffffffffffffffffffffffffffffffffffffff1673ffffffffffffffffffffffffffffffffffffffff168152602001908152602001600020548210610bb9576040517f08c379a00000000000000000000000000000000000000000000000000000000081526004018080602001828103825260208152602001807f496e73756666696369656e742061737365747320666f72207472616e7366657281525060200191505060405180910390fd5b81600660003373ffffffffffffffffffffffffffffffffffffffff1673ffffffffffffffffffffffffffffffffffffffff1681526020019081526020016000206000828254039250508190555081600660008573ffffffffffffffffffffffffffffffffffffffff1673ffffffffffffffffffffffffffffffffffffffff168152602001908152602001600020600082825401925050819055508273ffffffffffffffffffffffffffffffffffffffff163373ffffffffffffffffffffffffffffffffffffffff167fddf252ad1be2c89b69c2b068fc378daa952ba7f163c4a11628f55a4df523b3ef846040518082815260200191505060405180910390a36001905092915050565b60028054600181600116156101000203166002900480601f016020809104026020016040519081016040528092919081815260200182805460018160011615610100020316600290048015610d585780601f10610d2d57610100808354040283529160200191610d58565b820191906000526020600020905b815481529060010190602001808311610d3b57829003601f168201915b505050505081565b60018054600181600116156101000203166002900480601f016020809104026020016040519081016040528092919081815260200182805460018160011615610100020316600290048015610df65780601f10610dcb57610100808354040283529160200191610df6565b820191906000526020600020905b815481529060010190602001808311610dd957829003601f168201915b50505050508156fea265627a7a7231582009eedaf464e7644b2153639b21b6f9e6eaa37e746abb2cc2ed6437f13cec42ec64736f6c63430005100032",
  "source": "// SPDX-License-Identifier: MIT\r\npragma solidity >=0.4.22 <0.9.0;\r\n\r\n// import './SafeMath.sol';\r\n\r\ncontract Asteroid {\r\n  // using SafeMath for uint;\r\n\r\n  address public forge;\r\n  string public _name = 'Asteroid Token';\r\n  string public _symbol = 'ASTR';\r\n  uint public _decimals = 0;\r\n  uint public supply;\r\n  uint[] balances;\r\n\r\n  // creates table of accounts + balances\r\n  mapping (address => uint) public accounts;\r\n  // creates table of accounts + allowances(allowance *is* balance of account)\r\n  mapping(address => mapping (address => uint)) allowed;\r\n\r\n\r\n\r\n  struct Dino {\r\n    string dinoName;\r\n    address dinoAddress;\r\n  }\r\n  // mapping (address => Dino) dinos;\r\n  Dino[] public dinos;\r\n  // address[] public dinoAccounts;\r\n\r\n  constructor() public {\r\n    //this explains where each thing comes from, e.g. \r\n    forge = msg.sender;\r\n    supply = 1000000;\r\n  }\r\n\r\n// function addDino(string memory _dinoName, address _dinoAddress) public returns(uint) {\r\n//   Dino.dinoName = _dinoName;\r\n//   Dino.dinoAddress = _dinoAddress;\r\n//   return dinos.length;\r\n// }\r\n\r\n\r\n  // Minting -- Ryan's burning/distribution scheme commented out:\r\n// function mint(address receiver, uint amount) public returns (bool) {\r\n//   require(msg.sender == forge);\r\n//   require(amount < balances[forge], \"Insufficient assets for minting\");\r\n//   // uint burn = amount / 10;\r\n//   // uint perCapita = amount / (balances.length -1);\r\n//   // blances[forge] = balance - burn;\r\n//   balances[receiver] += amount;\r\n//   supply += amount;\r\n//   // for (uint i = 1; i < balances.length; i++) {\r\n//   //   balances[i] += perCapita;\r\n//   // }\r\n//   return true;\r\n// }\r\n\r\n//maybe take the {} part out from these first 3 and move them up to variable declarations?\r\n//\"Function state mutability can be restricted to pure function name() public view returns (string memory) {...\"}\r\nfunction name() public view returns (string memory) {\r\n  return _name;\r\n}\r\n\r\nfunction symbol() public view returns (string memory) {\r\n  return _symbol;\r\n}\r\n\r\nfunction decimals() public view returns (uint) {\r\n  return _decimals;\r\n}\r\n\r\nfunction totalSupply() public view returns (uint) {\r\n  return supply;\r\n}\r\n\r\nfunction balanceOf(address _owner) public view returns (uint balance) {\r\n    uint index = accounts[_owner];\r\n    return balances[index];\r\n}\r\n\r\nfunction transfer(address _to, uint _value) public returns (bool success) {\r\n  require(_value < accounts[forge], \"Insufficient assets for transfer\");\r\n  accounts[msg.sender] -= _value;\r\n  accounts[_to] += _value;\r\n  emit Transfer(msg.sender, _to, _value);\r\n  return true;\r\n}\r\n\r\nfunction transferFrom(address _to, address _from, uint _value) public returns (bool success) {\r\n  require(_value < accounts[_from], \"Insufficient assets for transfer\");\r\n  accounts[msg.sender] -= _value;\r\n  accounts[_to] += _value;\r\n  emit Transfer(msg.sender, _to, _value);\r\n  return true;\r\n}\r\n\r\n\r\n// function approve(address _spender, uint256 _value) public returns (bool success) {\r\n//     return true;\r\n// }\r\n\r\n\r\n// function allowance(address _owner, address _spender) public view returns (uint256 remaining) {\r\n//   return 0;\r\n// }\r\n\r\n\r\nevent Transfer(address indexed _from, address indexed _to, uint _value);\r\n// event Approval(address indexed _owner, address indexed _spender, uint256 _value);\r\n\r\n}\r\n  ",
  "sourcePath": "C:/Users/Sambda/alchemy-career-track/project-03/quadceratops/contracts/Asteroid.sol",
  "compiler": {
    "name": "solc",
    "version": "0.5.16+commit.9c3226ce.Emscripten.clang"
  },
  "schemaVersion": "3.4.0",
  "updatedAt": "2021-04-28T04:29:08.044Z",
  "devdoc": {
    "methods": {}
  },
  "userdoc": {
    "methods": {}
  }
}